:10000000003C0120C13602007D5302007D530200F6
:100010007D5302007D5302007D5302007D53020098
:100020007D5302007D5302007D5302007D53020088
:0C0030007D5302007D530200F9E6000041
:10003C002DE9F047A8B004460078A0F1A0015C2996
:10004C0000F26780DFE811F0BC00DF005D005D00AE
:10005C00F70024015F015D00B900B9008401C10102
:10006C00F00117022A02360244024F0258026102C2
:10007C00670270027602A402BB02C602D202E2023E
:10008C00ED02B900B900B900F7020103B900B900DB
:10009C000C03B900B900B900B900B900B900B90036
:1000AC00B90017031D03B900B900B900B900B900B4
:1000BC00B900B900B90026032F03B900B900B90083
:1000CC00B900B900B900B900B900B900B900B9005C
:1000DC00B900B900B900B900B900B900B9003803CA
:1000EC00B900B900B900B900B900B900B900B9003C
:1000FC00B900B900B900B900B9005D005D005D0040
:10010C00B90060681221002808BF0221617001F05B
:10011C00DCB94D2800F25180A678DFE810F0D60249
:10012C004E00E602F002CB034E004E00F403050431
:10013C0053044E004E004E004E004E004E0058042C
:10014C0062048A044E00B1044E004E004E00B90504
:10015C00C8054E00D305ED054E0016063A063D06C1
:10016C004A066E064E004E004E004E004E00B8067B
:10017C004E00C606D706E8064E004E004E004E0056
:10018C004E004E004E004E004E004E004E004E00F3
:10019C004E0001071C0736074E004E004E004E0065
:1001AC0050074E007A074E008B074E004E004E0053
:1001BC004E00AB07C207CF07D907122001F084B954
:1001CC006068002801F07F81A168002901F07B8123
:1001DC0001783A20002908BF3B200BAD00211122E9
:1001EC002B4627F089FA0028607041F06E81D4E923
:1001FC0001109DF82C204270097800F8021B691C34
:10020C00102200F09FBD6168002901F05C81087824
:10021C004A783A258B7800288DF82C2008BF3B258E
:10022C000BA80130002B00F069870331102227F056
:10023C0033FC00F065BF6168002901F04481A068BF
:10024C00002801F0408111F8012B00F8012B28F057
:10025C0068F960680178002901F00681DFF81C0854
:10026C000BAE002506F108080788AF4201F0298182
:10027C00A9B2042000221423009624F04FFB6070D6
:10028C0020B927F085FE002801F07A810135ECE7D2
:10029C006068002801F017810178002900F036878A
:1002AC00DFF8A40E0DF12C0A00250DF11C08002618
:1002BC000AF10809CDE90955CDE907550788B74278
:1002CC0001F03081B1B2042000221423CDF800A03B
:1002DC0024F024FB6070A0B9606849460822043001
:1002EC0026F096FA002801F01B8155B9606841464A
:1002FC000822043026F08CFA00284FF0000508BFC5
:10030C0035460136DBE76068002801F0DC800178B7
:10031C00002900F01587DFF8300E0DF12C090027AD
:10032C0009F108080588BD4201F0CF80BEB2042057
:10033C0000221423CDF80090314624F0EFFA6070BF
:10034C0020B927F025FE002801F0FE800137EAE7EE
:10035C006168002900F0C786DFF8F05D087885F841
:10036C00260095F872204888E882087A2876488911
:10037C0068834868A8628889A884887B85F83800D7
:10038C00C87B6871087CE870486928638869686371
:10039C00087F824202D01FF0C1FE616805F139006E
:1003AC001D3128F00CF995F82600082840F0A3869A
:1003BC00DFF8982D2120742127F0CEFE0020022199
:1003CC00002521F08BFC00F097BE6068002800F03F
:1003DC008C8600781FF0A2FE6168DFF8705D287EC5
:1003EC004978884212D029760BA9E12024F020F913
:1003FC00606841789DF82C00884207D08DF82C104D
:10040C000BA9E1201FF0BCFF60684078012101FAC4
:10041C0000F0A86225F0DEFE00260120A5F8706031
:10042C0021F07CFA00F062BE6068002801F04B807D
:10043C0001884088ADF81C00ADF82C100BA9532096
:10044C001FF09EFF07A950201FF09AFF0DF11B0112
:10045C00E12024F0EDF860689DF81B1000798142D2
:10046C0001F02F808DF81B000DF11B01E1201FF016
:10047C0087FF01F026B86168002901F02480DFF8BD
:10048C00D00C28F04EF86068DFF8C82C0189807A0F
:10049C001180DFF8C41C087001F013B860680028E4
:1004AC0001F0118000216170817800881DF004F842
:1004BC0001F00BB8A068002801F0058000206070E6
:1004CC001FF048FB002800F07186A16800F0E6BD23
:1004DC006068002800F0F78700216170007808F050
:1004EC0069F800F0F2BF6068002800F0EC87007833
:1004FC001FF08AFF00F0E8BFA068002800F0E38737
:10050C000020607027F0BCFDB2E00020607022F08B
:10051C0083F800F0DABFA068002800F0D487002030
:10052C00607027F04FFEA3E00020607022F0ACF862
:10053C0000F0CBBF6068002800F0C5870021617017
:10054C00017D19B1C17CDFF8142C5174817D19B176
:10055C00417DDFF8082C9174017C19B1C189DFF859
:10056C00FC2B1181017B19B18168DFF8F02B5160F4
:10057C00817C19B1417CDFF8E42B5173017900299E
:10058C0000F0A3870068DFF8D41B086000F09DBF63
:10059C00A068002800F09787DFF8C01BD1F80D2069
:1005AC00C0F80D2091E82C0085600D7BC0E900237C
:1005BC000573B1F81110A0F8111000F082BFA068FB
:1005CC00002800F0808700216170411C1FF0FAFEAA
:1005DC0000F07BBF6068002800F075870021617017
:1005EC001EF0C6FCA168088000F06FBF6568002D86
:1005FC0000F06987EB88AA88698828782E890A35E3
:10060C00CDE9006512F032FF00F05EBF6068002893
:10061C0000F0598782884188007805F051F900F084
:10062C0053BF6068002800F04E8700F1120120F0E3
:10063C002BFE00F049BF6068002800F04487416839
:10064C0000781EF02DFD00F03FBF6068002800F020
:10065C003A8700216170007822F020FD00F035BF50
:10066C00A068002800F02F870020607025F032FE73
:10067C00A16800F014BD002060701DF0CFFB00F0ED
:10068C0024BF6068002800F01E87006821F0E0FF9E
:10069C0000F01ABF6068002800F01587006803F0AE
:1006AC0075FE00F011BF6068002800F00C87006830
:1006BC000BF0A4FD00F008BF60680078002800F083
:1006CC00178526F02FFC00F000BF6068002800F0B2
:1006DC00FA86407818B1FF20032121F0FFFA27F0A9
:1006EC0090FEE44801210160FEE76068002800F0FC
:1006FC00EA8603210171E049016000F0E2BE626804
:10070C00002A00F0E086A168002900F0DC860020B9
:10071C006070107840B101200870DFF8440A00784E
:10072C00002818BF01204870907840B10120087152
:10073C00DFF8300A0078002818BF01204871D07803
:10074C0048B1002026F0CEFFD4E90121C0F340309F
:10075C00C87101208871107928B30120087201F149
:10076C000C0026F0BFFFA1680882DFF8FC090078B6
:10077C00C8B9DFF8F8590120A847A16848610220E0
:10078C00A847A16888610420A847A168C86108200F
:10079C00A847A16808621020A847A16848622020D9
:1007AC00A847A16888626068427932B1012281F859
:1007BC002C20DFF8BC291288CA85827932B101223B
:1007CC0081F83020DFF8AC2912884A86C27932B120
:1007DC00012281F83420DFF8A0291288CA86027A17
:1007EC003AB1012281F83820DFF89029127881F88B
:1007FC003920427A3AB1012281F83A20DFF8802977
:10080C00127881F83B20827A3AB1012281F83C209F
:10081C00DFF87029127881F83D20C27A3AB10122B2
:10082C0081F83E20DFF86029127881F83F20027BA6
:10083C003AB1012281F84020DFF85029127881F872
:10084C004120427B3AB1012281F84220DFF8402955
:10085C00127881F84320827B3AB1012281F844203E
:10086C00DFF83029127881F84520C27B002A00F08D
:10087C00928601201122002681F846000BAD8120C2
:10088C0000212B4626F038FF9DF82C00A16800288B
:10089C0081F8470000F0648627F0E3FEA168002889
:1008AC00886400F073869DF82C20691C27F0F4F8FE
:1008BC0000F070BE254655F8040F002800F00386A2
:1008CC0000216170017841B14078DFF89428012152
:1008DC001070632027F040FC2868017941B1407901
:1008EC00DFF88028012110706D2027F035FC286876
:1008FC008179002900F05C84C1794FF400500AF032
:10090C00C9FF00F069BC6068002800F0DC8590F934
:10091C000050284626F04EF8A068002800F0D1853B
:10092C00E9B2017000F0CDBD6068002800F0CB8505
:10093C00002161702A2127F0A1FDDFF810586068B2
:10094C00DFF854680822E98A0180A98C8181698BBF
:10095C00C182DFF848180978817205F139010E302F
:10096C00B047676826F0A6FD0146B81C0822B047C0
:10097C00606805F11C0108221830B0476068297EB8
:10098C00012280F82310DFF8181880F822208978CB
:10099C00CB0718BF80F824208A0744BF012280F8B7
:1009AC0025204A0744BF012280F826200A0744BFAD
:1009BC00012280F82720490644BF012180F8281025
:1009CC0000F083BD60686FF03D01FFF79CBB606871
:1009DC00002800F07885008800210DF021FA00F045
:1009EC0074BD6068002800F06E85304626F01EFB52
:1009FC000546002800F0F784E888DFF8A81740F0D7
:100A0C000C00E880022026F0C3FDDFF89C170320C1
:100A1C0026F0BEFD40F20110ADF8310060680168AF
:100A2C0000790B918DF830000BA81CF0B9FB00F08D
:100A3C004BBD6068002800F046850BAD011D0822F7
:100A4C00284627F029F8032025F0B4FB6068C07B0A
:100A5C0023F0EEF8DFF848078378606841888689D0
:100A6C000278807BCDE90060284612F073F800F024
:100A7C002BBD00BF7C05204301020206F2AB020035
:100A8C006768002F00F01F8527F007FC054600283B
:100A9C0000F0BA84387828B1E988787821F001011F
:100AAC000843E880B87830B1E988F87821F0020181
:100ABC0041EA4000E880387930B1E988787921F052
:100ACC00040141EA8000E880B87930B1E988F8790E
:100ADC0021F0080141EAC000E880387A30B1E98899
:100AEC00787A21F0100141EA0010E880B87A30B130
:100AFC00E988F87A21F0200141EA4010E880387B3F
:100B0C0030B1E988787B21F0400141EA8010E8801F
:100B1C00B87B28B1A968F87B21F001010843A860D3
:100B2C00387C38B1A968787C21F00201002818BF04
:100B3C000231A960B87C38B1A968F87C21F00401B5
:100B4C00002818BF0431A960B87D38B1A968F87DB8
:100B5C0021F01001002818BF1031A960387E38B17F
:100B6C00A968787E21F02001002818BF2031A960E7
:100B7C00B87E38B1A968F87E21F04001002818BF72
:100B8C004031A96097F8220048B1A96897F8230072
:100B9C0021F48061002818BF01F58061A96097F8E5
:100BAC00260048B1A96897F8270021F400510028C5
:100BBC0018BF01F50051A96097F8280048B1A96841
:100BCC0097F8290021F48041002818BF01F58041D5
:100BDC00A96097F82A0048B1A96897F82B0021F46E
:100BEC000041002818BF01F50041A96097F83400B6
:100BFC0048B1A96897F8350021F48011002818BF76
:100C0C0001F58011A96097F8380048B1A96897F8E8
:100C1C00390021F48001002818BF01F58001A9607A
:100C2C0097F83C0048B1A96897F83D0021F0807115
:100C3C00002818BF01F18071A96097F83E0048B1F7
:100C4C00A96897F83F0021F00071002818BF01F146
:100C5C000071A96097F8400048B1A96897F8410065
:100C6C0021F00061002818BF01F10061A96097F81C
:100C7C004200002800F0298497F84310A868002946
:100C8C000CBF20F0805040F08050A86000F01DBCDC
:100C9C00022060706068002800F01784418800789A
:100CAC0020F0B6F8002840F00C8400F00EBC606810
:100CBC00002800F0088400216170007821F03CFCD1
:100CCC0000F003BC6068002800F0FD83A1680029D7
:100CDC0000F0F98300216170007825F0A3FEA16873
:100CEC000870400027F0BDFC0146D4E901025160B8
:100CFC00007824F095FEE8E36068002800F0E383B8
:100D0C00A068002800F0DF830026C0E90066606858
:100D1C004188007824F028FA002800F0BD83667022
:100D2C000546A16800880880A8780028887000F023
:100D3C00CC8327F096FCA1680028486000F0C5839E
:100D4C008A78E91C26F0A8FEBFE36068002800F052
:100D5C00BA830021CDF83A10CDF83610CDF8321008
:100D6C00CDF82E1002794188ADF82C105AB181685B
:100D7C0049B10F2A28BF0F228DF82E200BA8033063
:100D8C0026F08AFE606800780BA901221AF09CFEFE
:100D9C009AE326F01BF997E36568002D00F0938326
:100DAC002F78384626F04EF9002800F03F83D020EB
:100DBC008AE36068002800F08683007826F042F908
:100DCC00002800F080830546007B22F019F90028EA
:100DDC00607040F07A83DFF8BC0A4168002900F0AB
:100DEC00748300220C462346002C00F0BB83AB42DC
:100DFC0000F0B8831C681A46F5E76668002E00F010
:100E0C006283357D284626F01DF9002800F05B83AF
:100E1C00307F102141EA4007717F002908BF47004D
:100E2C00B07F002818BF47F00807F07F002818BFD4
:100E3C0047F0200796F82000002818BF47F040071D
:100E4C0096F821000028284618BF67F07F07D6F8CF
:100E5C00188026F0B1FE002800F035830546606846
:100E6C00827A01788DF8352082898DF83410ADF8AE
:100E7C0036204A1E022A05D3032900F032840F299A
:100E8C0040F034844188ADF82C1000F02FBC616820
:100E9C000220002900F018830A888DF83400498854
:100EAC00ADF82C200BA802221DE06168022000295D
:100EBC0000F00A838DF83400002308880A794988E9
:100ECC00ADF82C000BA824F075FDFDE26168022042
:100EDC00002900F0F9828DF8340005220888498831
:100EEC00ADF82C000BA8002325F048FDECE265685A
:100EFC000220002D00F0E8828DF834002E7B0027B4
:100F0C002888AB79AA886988ADF82C00A8682D6967
:100F1C00CDE90006CDE902570BA813F03FFDD3E253
:100F2C0065680220002D00F0CF828DF83400EE6849
:100F3C002F7C4FF0000C2888EB8869882A79ADF853
:100F4C002C00287A6D698DE8C100CDE9035C0BA8F3
:100F5C0013F0CCFCB8E26168002900F0B4820220E6
:100F6C008DF83400887B0D88421E8DF82400022AEF
:100F7C00ADF82C5005D3032800F090820F2840F0D8
:100F8C009282088AADF81C008DE26068002800F09F
:100F9C009A8202218DF834100188ADF82C10817BD7
:100FAC004A1E8DF82410022A05D3032900F09E82D4
:100FBC000F2940F0A182018AADF81C109CE26068F8
:100FCC00002800F0808202214FF6FC728DF834105C
:100FDC0001888A1A032A11D8022A0FD026F09CFF06
:100FEC00ADF82C0060680021837AC27A0091811CD4
:100FFC000BA820F00DFB607060680188ADF82C1018
:10100C00837AC27A00210091811C0BA820F000FB8E
:10101C005AE262680220002A00F056828DF83400F1
:10102C00002310889178D278ADF82C000BA81CF016
:10103C00EBF949E26168002900F04582CA7A887AA6
:10104C000B7B4D7B002A18BF40F00200002B18BF11
:10105C0040F00400002D18BF40F008008A7B002AE5
:10106C0018BF40F040000023C2B20888023121F0C2
:10107C00F3F929E26068002800F02582A1680029B4
:10108C0000F0218200780BA924F099FE0020BDF815
:10109C002C206070D4E90101A1F8012000780870BF
:1010AC0013E26068002800F00E82B0F80110ADF871
:1010BC002C1000780BA925F08BFC05E26068002849
:1010CC0000F00182017A427A00231BF03FF8FBE129
:1010DC006068002800F0F7818178C27800880023CE
:1010EC0022F006FEF0E1022506E002266670ECE135
:1010FC0026F020F9E9E100256570E6E122F028FEF2
:10110C000BAA2846112127F027F8DDE100F10C018C
:10111C000BA8102226F0C0FC6068D0E9071204303E
:10112C00CDE90F1207A924F057FC0028607000F0DD
:10113C0022826168488804310BAA1DF0F9FBC3E1D7
:10114C00013026F002F9BFE1F2AB02009857002003
:10115C00FC270020FA270020F8270020D0230020AD
:10116C00C9290020D8680020CD290020C19D01008C
:10117C0078290020742900207C290020C029002017
:10118C00BD290020B0290020BE290020C82900203C
:10119C00B1290020CB290020A57A0200642600206A
:1011AC0060670020AD1C02009177020001208BE1EA
:1011BC00017A89B1C168008A420701D064290BD336
:1011CC0012F0E0FB002001210AF064FBDFF8CC26D2
:1011DC003520282126F0C0FF2868817C41B1808A07
:1011EC00DFF8BC2602211080442026F0B5FF2868C9
:1011FC00817D41B1008BDFF8AC26022110804620A6
:10120C0026F0AAFF2868817E41B1808BDFF89826F2
:10121C0002211080832026F09FFF2868817F41B136
:10122C00C07FDFF8882601211070292026F094FF5A
:10123C00286890F8201049B190F82100DFF870264A
:10124C00012110702B2026F087FF286890F82210BF
:10125C0049B190F82300DFF85C260121107043207F
:10126C0026F07AFF286890F8241049B190F82500F0
:10127C00DFF84426012110702E2026F06DFF28681F
:10128C0090F8261049B190F82700DFF8302601219C
:10129C0010702F2026F060FF286890F8281049B1B4
:1012AC0090F82900DFF8182601211070302026F064
:1012BC0053FF286890F82A1049B190F82B00DFF8FA
:1012CC000426012110702C2026F046FF286890F887
:1012DC002C1089B190F82D20102A28BF1022016BF8
:1012EC008DF82C200BAC601C26F0D6FB8120112134
:1012FC00224626F031FF286890F8341049B190F856
:10130C003510102928BF1021826B622026F024FF93
:10131C00286890F83C1041B1006CDFF8AC25042132
:10132C001060842026F018FF286890F8441049B10A
:10133C0090F84500DFF89425012110704B2026F021
:10134C000BFF286890F8461069B1DFF8844500F16E
:10135C0047010822204626F09FFB47200821224601
:10136C0026F0FAFE286890F84F1031B100F15002C7
:10137C000120082126F0F0FE286890F8581041B1A1
:10138C0090F859008DF82C000BA952201EF0F8FF94
:10139C00286890F85E1049B190F85F00DFF83425AA
:1013AC0001211070332026F0D7FE286890F85C10CD
:1013BC0059B190F85D00DFF8202501211070322022
:1013CC0026F0CAFE1DF03CFD286890F8601000293C
:1013DC007BD090F86100DFF8BC144870DFF8B014D3
:1013EC0081F8680071E01C2027F03BF900286CD0D4
:1013FC001C21054627F042F828462E7121F0D0FE1C
:10140C0000287FF4F9AA86E01C2027F02AF900288E
:10141C005BD01C21054627F031F828462E7121F0AF
:10142C00BFFE002877D06768FFF734BB25F016FEA7
:10143C00DFF860140978884270D226F02EFF20B1B4
:10144C008146007B002800F08B811C2027F009F9D5
:10145C00D8B31C21814627F011F889F804604FF0AD
:10146C00010865682F787DE1013007A924F0B4FAF2
:10147C00607050BB07980021182240880BAB26F0F7
:10148C003BF9607008BBA068DDE90F12C0E90712D8
:10149C0009300BA9FEF7B4BEB12015E0103107A836
:1014AC0027F03FF86168DFF8E803C08A854210D165
:1014BC00887A0A7E0C310123009107A908F00CFDF3
:1014CC0008B1002000E002206070012028B0BDE8C7
:1014DC00F08788890A7E8B7A07AE0025CDE9000655
:1014EC00CDE902258A1C0BA9212011E000F1100185
:1014FC0007A827F016F860688189027E837A07AE08
:10150C000025CDE90225CDE90016821C0BA922206D
:10151C0018F08CFED8E7284627F0A1F8D120D3E7A5
:10152C0037463546012DD0DB60680822011D484640
:10153C0026F0B2FA60681422D0E90710CDE90B103E
:10154C00B9B20BAB042008E00BAD1421284626F0F1
:10155C0095FF0420314614222B4623F0F5F9B3E70E
:10156C008E6417E0AB42B0D1A94208BF021D2868B7
:10157C0010602846E0E00798182140880BAAC2E5C5
:10158C00A068DDE90B12C0E907129EE70020886411
:10159C0081F847006068007C70B1102027F061F87A
:1015AC000346A06803653BB10121102280F84C1062
:1015BC006220002126F0A0F86068417C31B1A1685E
:1015CC00012281F85420C04A12688A65817C39B1A5
:1015DC00A168012281F85C20BC4A127881F85D2058
:1015EC00C17C51B1A0680121082280F85E10A84985
:1015FC005F30393126F050FA6068017D59B1A56829
:10160C00012085F8670025F055FF014605F16800BB
:10161C0026F087FF6068417D79B10BA9522023F039
:10162C0007F8A068012180F870109DF82C10002993
:10163C0018BF012180F871106068817D19B1A16813
:10164C000122A1F87220C17D51B1A168012281F85B
:10165C007420A14A1278002A18BF012281F8752043
:10166C00017E39B1A168012281F87620994A12785D
:10167C0081F87720417E51B1A168012281F8782050
:10168C00844A5278002A18BF012281F87920807E82
:10169C0000283FF41AAFA168012081F87A007C4938
:1016AC0091F82610082918BF042916D0A1B92120B9
:1016BC0026F0ECFE74280FD10BAB212000217422F4
:1016CC0026F01AF89DF85210043901F0FB0108437A
:1016DC00B0FA80F0400900E00020A16881F87B009E
:1016EC00F3E6811C0BA826F01CFF6068817B31B3EC
:1016FC00480026F0B6FF88B3616806460022887B56
:10170C00904206D00B6933F8123026F812300132B1
:10171C00F6E78B8CCA8AD1F828C091F82210FFB258
:10172C00CDE90406CDE90271CDE900C80BA8294624
:10173C001EF0E3FB6070304626F091FFC5E6838C0B
:10174C00C28A816A90F82200FEB2CDE90018CDE978
:10175C0002600BA8294606F049FEB5E61020B3E658
:10176C004FF000084E4606F80C7F287A30734A4832
:10177C007060142026F075FF0028B06045D014214D
:10178C0026F07CFE6268D9F814005268817992794F
:10179C0001F0F00102F00F02114481716168D9F877
:1017AC00140049680A780270D1F80220C0F80220AF
:1017BC00CA79C271097B0173500026F052FFD9F827
:1017CC001410886060B1CA7900239A4208D0656809
:1017DC006D68AD6835F8135020F813500133F4E7F9
:1017EC00087B400026F03DFFD9F81410086160B169
:1017FC00097B0022914208D063685B681B6933F84F
:10180C00123020F812300132F4E7304624F0F6F8AA
:10181C00B82802D00746022806D1307821F0F0FB18
:10182C00304624F0EBF8074637B1B8F1000F0FD073
:10183C00484626F014FF23E0B8F1000F3FF445AE04
:10184C00484621F0ADFC00287FF43FAE484673E7D4
:10185C00D9F8140078B1816821B1084626F0FFFE52
:10186C00D9F81400016921B1084626F0F8FED9F820
:10187C00140026F0F4FE0020C6E90000C6E90200C0
:10188C00B82F3FF494AA022F3FF491AA1DE600BF93
:10189C009857002054280020ED4C00202C63002089
:1018AC0078290020742900207C290020C0290020E0
:1018BC00BD290020B0290020BE290020C829002005
:1018CC00B1290020CB29002064290020AD2900205B
:1018DC008C280020B5290020B62900202DE9F04FD6
:1018EC008FB00C46480719D4200400F17580E00431
:1018FC0000F1CE81200600F1EC81A00700F1EE8111
:10190C00200500F10F82600600F12482A00400F192
:10191C004882600400F19B82002018E2DFF8BC05CD
:10192C000178062900F21182DFE811F00700C201EC
:10193C000F020F0209020F02C701DFF8A46596F827
:10194C0037108A0600F101824A0700F1DB818A0711
:10195C0000F1EB81090740F1F8810621017096F83E
:10196C003A00002800F0B6821EF0F4F8002800F0CF
:10197C00B1820546F06840684078800740F1858266
:10198C00287804AB032100221FF09DFC002800F0F6
:10199C006A8206980188B42916D8B4214FF47A7259
:1019AC000180DFF840054FF40051007826F0C5FDAA
:1019BC00DFF83805016839B1DFF834050078FF2805
:1019CC0014BF2878FF208847F06840684078C0072B
:1019DC0040F0528209204CE2DFF81C05DFF8047558
:1019EC00DFF8F8A4DFF8245548F2040848F202099D
:1019FC004FF6FE7B0088029038781AF02FFF0028F3
:101A0C0000F0438106460078D3280DD1F08940457B
:101A1C0037D0484539D048F20101884240F01B814B
:101A2C00304614F027FE16E19AF80010884219D1BE
:101A3C00012856D0032840F00E81DFF8AC04007862
:101A4C000138012800F20781B078012877D00028EE
:101A5C0040F001817078002800F0BD8000201CF05F
:101A6C003BFDF8E00A2840F0F680DFF8741491F89A
:101A7C0037003071096A002900F0ED80B01C8847EE
:101A8C00E9E0304618F042FCE5E0DFF87404007839
:101A9C00002800F0E0809AF80000012840F0DB807C
:101AAC0025F05AFF002840F0D6807088002840F0BE
:101ABC00D2800AAD1221284626F0E0FC26F0A2FBCB
:101ACC003046294617F012FABDF83400B0F5285FFD
:101ADC00C0F09480012002211DF008FBDFF82C548B
:101AEC00B9E0DFF8040400780138012800F2B38073
:101AFC007078DFF8EC2360B192F83C0092F83D105E
:101B0C00013082F83C00C0B2884202D90120002189
:101B1C009FE09AF80100032834D002284BD001280A
:101B2C0040F09980DFF8D8030078002800F08B8013
:101B3C0025F012FF002800F09280012084E07078DC
:101B4C00002850D026F0E8F95845DFF8B8B34FF626
:101B5C00FE7103D1BBF81600884207D0ABF8161003
:101B6C00ADF81010532004A91EF00AFC1DF014FC53
:101B7C0024F030FA00208BF826001CF04FF94FF6B9
:101B8C00FE7B68E0AB4604ADAB2000212A461CF07E
:101B9C00F7FE04200A955D464FF6FE7B8DF82C006F
:101BAC000AA80EF0FDFF26F02DFB38784FF480517B
:101BBC0041F288321FE0012050714FF48060ADF883
:101BCC00100004A817F0CAFD26F01CFBCB484FF4FC
:101BDC00805102680EE010F05BF9C148406AD0BB3E
:101BEC001CF01CF937E002204FF4805140F6B8325B
:101BFC008AF80200387826F0A0FC2CE0C2480DF1DF
:101C0C000F01006804AA15F029FF01460298BF4D88
:101C1C00814213D29DF8200010B1FD208DF82000D8
:101C2C000420142204AB8B4622F08EFE0BEB4B00EF
:101C3C004FF6FE7B012105EB80004172A848002184
:101C4C0080F83B1003E00020A54981F83B000120FF
:101C5C00012101F0A5FD304624F0B9FCCCE6A049E9
:101C6C0091F83E0020B1886A0028F4D08047F2E752
:101C7C000020002102220023ADF8100002208DF874
:101C8C00180004A824F07AFE8DE784F400405EE08E
:101C9C00954800780138012841D8904801780329EB
:101CAC0035D001293BD1417800201DF01FFA36E0D8
:101CBC00012001211DF01AFA47E0002132220170A7
:101CCC00874880F8361087480421007826F035FCC8
:101CDC003BE011F043FD84F0800038E0824800784E
:101CEC00013801280BD80020CDE9040004A81DF010
:101CFC00F1FC20B17B48022100781AF067F984F0DE
:101D0C00020024E005210170052000211BE08178F0
:101D1C00022904D10121817000201DF0F7FE84F40A
:101D2C00805014E084F4006011E00421017096F8F6
:101D3C003810C90709D096F83A10002976D024F04B
:101D4C0082FC0420012101F02BFD84F004000FB073
:101D5C00BDE8F08F1DF0FEFED0B1614F054638781E
:101D6C0001383870000616D05E4E4FF48041307842
:101D7C001FF012FC30B9386925F036FF10B92878FD
:101D8C001BF06EFB3078402143F6982226F0D5FBF1
:101D9C005348007810B90B2025F01EFF84F040004A
:101DAC00D5E74F4EDFF83C91DFF840A100250DF14F
:101DBC001008002006F1080702903F6857B3D7F8C7
:101DCC0004B09BF800000028F7D0F028F5D80321C8
:101DDC00002243461FF077FA0028EED006980188BF
:101DEC00A1B94FF4407086F8365026F05BFA99F89A
:101DFC0000000AA926F029FBDAF8001086F8365004
:101E0C000029DAD09BF800008847D6E70139018019
:101E1C000120D1E7029999F80000C9071CD04FF4B2
:101E2C0000514FF47A7226F088FB19E02E4909789C
:101E3C00013901293FF689AF032101600120B070FF
:101E4C0001201AF07BFE012023F0FCFD7DE70FF052
:101E5C007FFB84F480407AE74FF400511BF0B8FE0E
:101E6C0084F4005073E7F06840684078C0070CD1E8
:101E7C000E2025F0B1FE08E040F2093026F012FAEF
:101E8C00184800780AA926F0E0FAF0684068407813
:101E9C00C1073FF45AAF17490968C1B128781BF044
:101EAC00DFFA10B10E2025F097FE0E4D0C204021CC
:101EBC0043F698223070287826F03FFB40F20A3027
:101ECC0026F0F0F928780AA926F0BFFA3DE780073A
:101EDC003FF53BAF0E2025F07FFE36E7286800204B
:101EEC00A4230020B3680020B92900204029002039
:101EFC00C827002028260020F2AB02004C29002025
:101F0C00A629002098570020145A0020786300203E
:101F1C002DE9F04F89B020F05FFCDFF8101581221D
:101F2C00DFF81485DFF814A5DFF82045DFF814E599
:101F3C000A70DFF8FC140860DFF8F804FF21017068
:101F4C000020DFF80415A8F800008AF80000DFF87C
:101F5C00F0040968007891F808B04FF6FE718EF81D
:101F6C00000059448AB2A168D1F80031DB899A4249
:101F7C0000F267810422DFF8DC54A8F80020DFF8B7
:101F8C00D02412689668330ECEF80C60C6F3015953
:101F9C002B706FF0FF0303EA1627B3B2D1F8B860C9
:101FAC0047EA1327AEF8047036781EB9B9F1020F60
:101FBC0000F04781B9F1030F00F043811B0A03F0D5
:101FCC00070316B1002B00F03C81DFF88CC4042B06
:101FDC009CF800C008BFBCF1000F00F032813EB18C
:101FEC00DFF878643678862E02D1022B40F02981F6
:101FFC00BB0416D4BBB203F00703022B08BFBCF121
:10200C00000F20D0DFF854140978862909D100205C
:10201C00764620F035FCDFF84004B64690F800C058
:10202C00307800284ED0BCF1000F4BD1012800F0C5
:10203C00088103283FD0022844D1BEF80400400791
:10204C0040F0FF803EE0D1F8D40090F883000228E5
:10205C0000F0808027460520147BF246A946A8F89C
:10206C00000025F03BFF0546DFF8F00300788628DA
:10207C006DD1B868016C096811B9D0F84C0580476E
:10208C0060B20021002626F035FBB9680A6C126894
:10209C005077086C00688677086C0068C47728460F
:1020AC0026F01BFABAF8041099F8000001F01001A0
:1020BC001BF032FF4EE0BEF8040000F007000328CE
:1020CC0040F0BF80BEF80400010700F1BA80810423
:1020DC0002D4810500F1B5809EF80E20C2F3810771
:1020EC00012F00F0AE809609012E00F0AA80B9F104
:1020FC00010F11D840F0020101F0070103290BD1A7
:10210C0017B93F2A40F29D8037B9A168D1F8AC10BD
:10211C000978002900F095804FF6FB71B9F1020F98
:10212C000BEB010C19D1CF4BD95D9B5D03EB010976
:10213C000023402AB7FA87F238BF012352091A400C
:10214C00430616D4002A08BF09F1020915E02846F7
:10215C0026F0C3F924F0E4FC75E0C14B402AD95DAC
:10216C009B5D03EB010908D3420648BFA9F10209A4
:10217C0003E0002A18BF4FF00209C0F300205FFAF9
:10218C0089F11FFA8CF30A1A8EF801009A4258DC76
:10219C0060440391B346401AA168AEF8060074304F
:1021AC00D1F8501280B28847A6490028886048D0E0
:1021BC007421CDE9019726F061F9A24F0020B87087
:1021CC00A548007820B9387900F020008AF8000082
:1021DC0078789AF80010DFF878C24FF000092E4694
:1021EC0000299A493DD000284FF000003AD1B88818
:1021FC0000F00700032807D0012832D18868D0F8F6
:10220C00D40090F8820060B3C8684069007818B1B7
:10221C0025F046F9FE280DD08C488068D0F84C0289
:10222C00804738B989488068D0F844028047002834
:10223C0000F0F780834F0120B870DFF814C22E46EF
:10224C0010E024F053FF25F049FE814900240A6870
:10225C0013681C7112680A6026F03FF909B0BDE8DA
:10226C00F08F0020BC6804F1740184F830B0616018
:10227C00A1657978BB88FA880029A381029B228109
:10228C0084F83A30337808BF994697F80EB084F842
:10229C004990019DA4F85C20FF22B8F80030A2738D
:1022AC00CBF301195E1A797BA8F8006001F0780174
:1022BC0060F3820101EB09002074280600F0AE8067
:1022CC00DCF8000004AF039A10FA86F000F1080164
:1022DC00384626F0EDF956FA85F0CBF38105A8F8CF
:1022EC000000207C00F04008CDB3B9F1020F06D1FC
:1022FC00B8F1000F03D0B4F8440004AF06E0BDF809
:10230C0010000237A4F84400A4F84200564EF1899C
:10231C00884203D04FF6FF7188425ED1032D11D154
:10232C0004F13200394626F04AF9464CF11CA068FB
:10233C00323023F099FD454900284ED094F80EB068
:10234C0008370EE037F8020BB1898842608606D058
:10235C004FF6FF713B4C88423C493ED101E03B4972
:10236C00384CBBF1400F20D3B9F1020F06D16DB937
:10237C00B8F1000F0AD13348806803E0A068017CF3
:10238C00490603D439880237A0F84210BBF1C00FBC
:10239C0006D32C4C3946A068283026F010F903E0FF
:1023AC00284C3888A168088528498968A088D1F804
:1023BC00AC201278B2B1B9F1020F13D200F00700C1
:1023CC00012802D003282FD11E4C6DB9264AA368D0
:1023DC00D289B3F84230934206D019F004FD18F0BC
:1023EC0075F830E700F00700032806D0012815D156
:1023FC00D1F8D40090F8820080B1A068D1F84812CE
:10240C008847104A50B90020D17B9070907BC1F363
:10241C00011100F0780008449168087406F048FC3B
:10242C0011E7084FB87808E7064CDDE7C2680020D2
:10243C005C680020C7680020EE660020C56800209C
:10244C00C468002020270020906800200C01002088
:10245C00F4670020D4680020D3680020CA680020EC
:10246C0008AB020004AB0200306700202DE9F843F2
:10247C0005460C46480413D4A00024D4A0075CD411
:10248C0060057ED4200500F10681200700F13B8118
:10249C00600040F1F68019F01DFA24F08044F0E061
:1024AC0025F01CFDDFF81C140F6D3FB1D7E90A12A3
:1024BC0002F0E04201F00A01891849D026F00DF82B
:1024CC0024F48044DDE0BB48DFF8FC73016841F084
:1024DC0080010160B878012804D1042020F08CFC24
:1024EC000020B87025F0FAFC0646042025F068FDA3
:1024FC00DFF8D8130A68904219D12A7EBAB1FA686B
:10250C00AAB1DFF8C003806C002800F09780C16886
:10251C0040F603020988914206D0C06840F60401D7
:10252C000088884240F08A8005F1140088E040F66B
:10253C00C4120860C5E9042284E009F0AFFFDFF89B
:10254C008403006C002840F09D8024F0020498E085
:10255C00D7E90A65D7E90A12AA43B143C7E90A12B7
:10256C0025F0BBFFB8680028AAD056EA0500A7D012
:10257C00D7F808C03869B7F9301032462B46E04717
:10258C009EE725F0ABFC054623F0BAF9002800F0D5
:10259C00B780CC48876B002F00F0B280DFF828831F
:1025AC000420CB49002288F81800C64824F075FE98
:1025BC0025F0BDFFC74825F08AFFC7480068006BAF
:1025CC008047C8F810000125042088F8025021F03B
:1025DC006FFA386990F82810C8F80400490703D539
:1025EC00436A04210022984701201AF05DFED8F8B6
:1025FC000400457612F0D4FED8F8040081680B462E
:10260C001A465B684BB11E88A6F60306072EF7D850
:10261C0005FA06F616F0830FF2D0537B03F0F003A5
:10262C00013353730023FD6853602D88A5F6030511
:10263C00012D00F28A80C8F810309FE005F11000DF
:10264C001DF038FE304625F048FF21F049FA78B1EC
:10265C002E6A28466FF4807100224FF00073B04749
:10266C009848806B10B119F035F901E044F0020480
:10267C00EE692846002100224FF08063B04724F019
:10268C00005434B1974821462830BDE8F84325F072
:10269C00FCBFBDE8F8838C4EB078012804D104202F
:1026AC0020F0AAFB0020B07021F01AFA38B1706843
:1026BC006FF4807100224FF00073056AA8473069EF
:1026CC0050B185480068006B804732697168801A88
:1026DC00000BC860002030617A4D814900222846E9
:1026EC0024F0DBFD02203076286C20B17D480221DD
:1026FC00283025F0CAFF19F0EDF824F40064C0E787
:10270C0025F015FF41E025F0E9FB054623F0F8F82C
:10271C00A0B1DFF8B48198F8000000070ED498F946
:10272C00000000280AD4684612F0D2FF08B10098C5
:10273C0020B1DFF8B49199F8610048B325F0F7FEA9
:10274C0019F0C8F824F008049BE7034633F8385F07
:10275C00A5B190F8445090F8456005F0F00580F86C
:10276C00445006F0F005013580F8455000255360C3
:10277C00C5634587507B00F0F0005073574800222A
:10278C00C2610160012023F0C5FC24F4806478E769
:10279C0000260127602E0FD009EB0600817A31B19B
:1027AC008772407A07FA00F0C0B220F03FFB203667
:1027BC00F0E700BFCC210840032088F818004548FA
:1027CC0025F085FE25F0B3FE444F3E4D002278697E
:1027DC0000207861F968F8602846444924F05DFDD2
:1027EC003D480068006B8047D8F80C10D8F82020C2
:1027FC00411A02EB1130B0EB113F38BF4FF0FF30F4
:10280C0098F82410C8F8200021B1D8F80810B0EBC3
:10281C00C12F20D923F08EFCB8B140F609004146F7
:10282C0021F83C0F002048804A7B02F0F002013274
:10283C004A730A7B02F0F0020A734860F86139604F
:10284C00B8F83E0010F4406FFAD00020C8F8200011
:10285C00012088F824001CF085FF25480021016028
:10286C000220002123F056FC022020F0C5FA102093
:10287C0012F0F2F998F8010020B9D8F804005030A1
:10288C0025F0FFFE1B48807810B90D2012F0E4F9FA
:10289C0098F8250028B1002088F82500052020F0A4
:1028AC00ABFA002088F818001348C8F81C00022066
:1028BC00B5F85610B5F85420914208BF072018F00F
:1028CC0059FA3DE7542200208C1F0020A428002038
:1028DC00E9580200EC5E00208C010010001004404E
:1028EC0061FE000030210020E858002045B90100AD
:1028FC0000000460F0A9020041F700002DE9F0434C
:10290C0095B00179044601F00700012840F0B3802E
:10291C00DFF8B803031D2068027D1B68002B00F054
:10292C00AA801D799542F8D19F68002F00F0A380F2
:10293C008388042B11D0032B51D0002B40F09B80AB
:10294C00080700F18881E07A002840F0948038680C
:10295C00002800F0808180477DE108074CD40020DE
:10296C000DF1400800211222ADF83E00404624F043
:10297C00B9FFE668E07A3746052837F8011BADF851
:10298C00401000F27880DFE810F00600BC00DA009E
:10299C00FC001D01290120683246007D10A91DF0A4
:1029AC0053FF6FF07602B82808BF6FF0750200284D
:1029BC0008BF02462168487D002840F04C814888B9
:1029CC00002840F04881A37A087DBDF840400125DD
:1029DC0006310293D3B20022CDE90045EFE0E37A51
:1029EC00090747D4012B62D0002B44D1E068114673
:1029FC0000881AF061FD2EE10DF14008E668002117
:102A0C001222404624F06EFF07A80021142224F065
:102A1C0069FFE07A022802D358D003282BD13178F1
:102A2C008DF82110B6F80120ADF8402079B90128B5
:102A3C000DD1F27808F103000F2A28BF0F22311DA7
:102A4C008DF8422025F010F908F102000B907969FD
:102A5C00002589B101208DF82850CDF824808DF8FF
:102A6C002200E07A8DF8200020680630079007A835
:102A7C00884701E023B10125284615B0BDE8F08355
:102A8C0006300790E0680088ADF8200007A81CF01D
:102A9C00BBFAF968002900F0DE802068E268063095
:102AAC0010901088ADF8440010A88847D3E0B9689E
:102ABC000025ADF84050002900F0A68006300790A4
:102ACC0007A8884720688188027D9EE030788DF8C1
:102ADC0028007578002D00F0AA80680025F02AFEE9
:102AEC00002800F0A480804600208DF822508542FA
:102AFC0000F09F8006EB4001498828F81010013047
:102B0C00F5E72068427D002A40F0A5804288002528
:102B1C00002AB1D1007D89B222F026FB2168A37A6C
:102B2C00012400280A7DCDE900430CBF8B2580468B
:102B3C000631434610462A4616F09AF9C4E096F838
:102B4C000090202025F0F6FD002800F089808046BA
:102B5C00B9F1000F00F09980002600254D457CD27C
:102B6C0020683988007DADF8401022F0FDFA28B1BC
:102B7C00BDF84010F0B2013628F8101002370135BC
:102B8C00ECE7206889B2007D1EF042F90025002296
:102B9C00002808BF6FF074022168487D00287FF47C
:102BAC006BAF4888002856D1A37ABDF84040087D09
:102BBC00012506310293D3B2CDE9004503221EF064
:102BCC00A7FA81E02068007D07A922F029FF0028E0
:102BDC0041D02068007D1FF0AFFC3CE02068002550
:102BEC000DF13E0303210022007D00951FF0CEF86D
:102BFC00BDF83E0000283FF43FAF20683246007D10
:102C0C0010A91DF021FE26E003210095104610AB03
:102C1C0000221FF0BBF8BDF84020E2B12168A37A76
:102C2C00087D00930631012321F08AFA4CE04FF025
:102C3C000008796949B1E07ACDF824808DF820003C
:102C4C0020680630079007A88847B8F1000F02D01B
:102C5C00404625F023FC00250EE730061BD130E062
:102C6C0089202168A37A01258DF81D00E07A0024C3
:102C7C008A888DF81C00087DCDE90055CDE902430A
:102C8C00063107AB1FF065FF1EE020684146007D52
:102C9C0022F0C6FE064625682F7D24F097F9C0F178
:102CAC001000A17A0122F3B2C0B2CDE9023801239F
:102CBC00CDE90020CDE90421A91D3846022214F0EB
:102CCC0099FB404625F0EAFBFF25D5E64428002079
:102CDC002DE9F04790B08246DFF89803007880B970
:102CEC00BAF8080010B11020012101E030200021B9
:102CFC0008F0D0FD00208DF80C0003A952201DF027
:102D0C003FFB9AF80810DAF8040003AA0DF01CFA3D
:102D1C00C8B19DF80E509DF80F409DF81070BDF88D
:102D2C00166025F0F3F884420DD126F003004FF61F
:102D3C00F87680B2B04206D0012F04D8022D02D210
:102D4C009DF83D0028B1D32015F063FE10B0BDE80E
:102D5C00F087BAF82800ADF83800BAF83200ADF8B0
:102D6C001A009DF8120058B1DAF804109DF80D20E5
:102D7C009DF82830012023F0BBFD08B1CF20E3E7FC
:102D8C009DF8110068B1BDF81610FF2022F0ECF987
:102D9C009DF81110D0B141F001012C278DF81110C4
:102DAC0015E09DF82900002800F09B809DF82D105F
:102DBC00FF2902D0002940F0EB80AF48BDF8161077
:102DCC000027C08A814208BF222706E0082701F0AD
:102DDC000300012808BF47F011079DF81200DFF827
:102DEC00988280B998F80B0068B107F0220022286D
:102DFC0009D007F042004228C0D10D98007800F0AD
:102E0C00FE000628BAD117F0400911D00D980178B0
:102E1C000C2900F2C480012241F290438A401A42EC
:102E2C0000F0AF8003A81EF021FB01283FF48EAF09
:102E3C00B8F82400BAF8441081420AD19AF8462016
:102E4C00BAF84210BAF8280000230093002311F0BE
:102E5C009DFC9DF81200F0B1BAF84210BAF82800A7
:102E6C0024F09EFF002854D00546DAF804009DF8A3
:102E7C000D10EA780844417B8A421EBF00226A602A
:102E8C00E9700130042121F04FFE69688842FFF49B
:102E9C005DAF0130686098F82600092802D004283C
:102EAC007FF454AFB8064AD4B9F1000F3FF44EAFDB
:102EBC000D989DF828100078042808BF022900F00E
:102ECC00AE80072808BF042900F0AE800C2800F063
:102EDC00AF8003287FF43AAF03A800211BF05AFE01
:102EEC0034E7BDF816001FF0A3F802386249B0FAB7
:102EFC0080F0CA8A4109BDF81600904208BF023121
:102F0C00002958D09DF80E20002A76D001F14007F8
:102F1C0075E09DF83D0000284FD0042022F04EFCB7
:102F2C0000283FF413AF01464FF4B2700880BAF892
:102F3C0028004880514800781AF08AF906E79AF878
:102F4C0046008DF80800BAF84700ADF809009DF866
:102F5C001E0001280ED1BAF82800BDF818108142C5
:102F6C0008D1BDF816001FF063F8022804BF00203A
:102F7C008DF81E00DAF83C2003A802A903F092FA9F
:102F8C00E4E603290BD140780D287FF44BAF4FE7D3
:102F9C000C9A9DF82C001DF0AFF900271DE7B8F82E
:102FAC001600BDF8162082427FF4CDAEBDF8180095
:102FBC0020F0EEFCC7E6002721E098F86C00012811
:102FCC007FF469AF0D980078062803D1B9F1000F92
:102FDC007FF461AFF01DBDF81A1080B281423FF44E
:102FEC00B5AE27480178BDF8160029B3B8F816100D
:102FFC00884221D11AF040FEA8E601F120071FF00B
:10300C0017F89DF80E0000283FF4E7AE0D980078F5
:10301C0023F0F8FE012818BF07F07E07DDE603A9B0
:10302C0000200DF0A1FE91E603A815F031FD8DE610
:10303C0003A810F0CBFE89E6002115F0EBF988B15E
:10304C00807910F0180F0DD0BAF82830BAF8324049
:10305C009DF82920BDF81610BDF8180000941BF03F
:10306C0057F873E6BDF81610BDF81800002219F0D9
:10307C0023FC6BE6CD29002098570020AF68002078
:10308C00B62900202DE9FE4F8846080426D45FEAB5
:10309C00C87004BF0020BDE8FE8FE548056825F028
:1030AC00B8FA044625F0B3FA60434FF47A714FF640
:1030BC00FF72B0FBF1F14FF6FF70002D00F01A819A
:1030CC002B886C88CB1A9BB29C4240F21C81E31A71
:1030DC0094B2A342B8BF1A46ED68EEE7DFF840A3FE
:1030EC00CDF804809AF8000019F0B8FB002800F025
:1030FC00FC8006460078012840F0EC80DAF80410D9
:10310C0096F83390D6F814B096F8138021B148464F
:10311C008847002840F0DE80718896F83100022242
:10312C0021F0A6FE0546002842D0287A297CA0F181
:10313C000108FF2900F0BB80707F4F46C00718BF05
:10314C000027E97C287D0144B94204D8E974FF21A9
:10315C0001FA00F06874A969A87C96F83020896A95
:10316C0010FB0710F16A24F097FC287D697CB7FBF3
:10317C00F0F202FB107001228240D2B20A436A7450
:10318C00C8457CD196F83010AB7C13FB0713A969AA
:10319C008B844FF4FF7303FA00F0C0B21043FF2886
:1031AC0068746CD1287C1AF053F8FF2028747FE0E7
:1031BC00707FC00700F08E80B07F24F0FDFC0028EB
:1031CC0000F0888004461C2025F04BFA002800F003
:1031DC0081801C21054625F051F9B07F02A922F00F
:1031EC00EEFD9DF8090002212875284622F0A2FE6A
:1031FC00708896F8312096F8301096F83330A88005
:10320C00287DEA71FF2202FA00F068746068007889
:10321C00A9742874302013FB010080B222F0CEFA7E
:10322C000028A8615DD004461A20B11C2060708C67
:10323C00A080A01D23F0DAFBF27F04F13000B17FF7
:10324C0096F82830C4F81CB084F81980A062307C41
:10325C00E273744A217563750121A075928C2282E8
:10326C00F28EA285F28C6282B6F81100A4F81700D7
:10327C009AF8000085F8089018F0A8FE55E725F09C
:10328C00C8F9044625F0C3F960434FF47A71B0FBDA
:10329C00F1F0654928806348097800794843642136
:1032AC0048436249097800FB0100688000E04F4602
:1032BC00E87C297D6A7C01440139B94218BFFF2A98
:1032CC000CD186F83300708806F11C0186F8342086
:1032DC0016F0CEF9304623F07AF903E7C845F9D158
:1032EC00EFE7284622F036FEF4E7019880F4004020
:1032FC00BDE8FE8F92B282424BD049480121007842
:10330C0025F01BF945E0A879022806D1287CFF2876
:10331C0037D0A86923F05BF933E025F07AF904463D
:10332C0025F075F960434FF47A71B0FBF1F03F4929
:10333C00288095F83800097888421BD295F83620F9
:10334C00FF2A06D195F83720013085F8380085F82A
:10335C00362095F8351095F8394082F0FF0300209F
:10336C000126C7B2A7421DD206FA07F71F4214D195
:10337C000130F6E7EA8BA87E95F82A10E9231EF0B7
:10338C00A1F9284622F0E6FD25480121007818F025
:10339C001DFE88F00100BDE8FE8FFBB201441A430C
:1033AC0085F83620AB8F95F83440C8B204FB103347
:1033BC009EB2A64203D2FF2285F8362002E0FF2AF5
:1033CC0008D12346184A174E127836797243642670
:1033DC00724302E095F83A2023466A802A8D0E0645
:1033EC0006D022F0200244432A852A6C224404E0B1
:1033FC0042F020012A6C2985297A85F82E10E9796A
:10340C006A6285F82D10D9B269840549496811B1F1
:10341C0088470028B8D105F1100004F0FFFEB3E78F
:10342C001428002098570020AA290020B029002039
:10343C008444002070B586B00C46080403D46004A4
:10344C0033D400203EE0C648007819F007FAB8B330
:10345C0005460078A0F1D00106292BD9A0F1310145
:10346C000629C0F08A801A2844D0FD2857D0FE289F
:10347C006FD1162022F0A2F9002800F07E800646BB
:10348C000230142124F0FAFF932030802A796878D6
:10349C00A978EB88012A33813071317418BF02226C
:1034AC00B271E978A87831754DE01FF057FC84F4BF
:1034BC00804007E00120884010F0750F04D05CE0DC
:1034CC0084F4004006B070BD01294BD1A54E68783C
:1034DC00B178814251D006F8020FA34B4FF0007027
:1034EC000021324620F0B4FD16F8010C9F4981F8FA
:1034FC00680042E0302022F061F900283DD03021F4
:10350C00064624F0BBFF9220A91D3070A87B03282F
:10351C00307169D1B01D082224F0BEFA66E00A2091
:10352C0022F04CF948B306460020C6F80600C6F84F
:10353C00020091203080A8786978EA787071317136
:10354C00B271A988318123F07DFD002840F0848080
:10355C008AE02846FCF76CFD78B1A878294619F06A
:10356C0077FEADE7E889A0F50041062913D8DFE81E
:10357C0001F0087F8A0498B0BB00284623F027F896
:10358C009EE7284618F082FD0028F6D06988824B09
:10359C0006460120B2E048F23601884200F0B580C0
:1035AC0048F22001884200F0B88048F2210188429C
:1035BC0000F0BB8048F22201884200F0BE8048F245
:1035CC003401884200F0C1801328D6D100206E4609
:1035DC000290CDE900002846314623F0B3F9698802
:1035EC006E4B4FF080705AE00888F080D5F80200DE
:1035FC00C6F81200E88AA6F81B00E87BB073288A8C
:10360C003082688AF082287D3076687D002818BF69
:10361C0001207076687E002818BF0120B076287EC5
:10362C007077E869306295F8200086F82400A88D40
:10363C00F08495F82E0086F82800A88C708525F06B
:10364C0010F80028F06298D0AA8CA96A24F024FA09
:10365C00287D23F0F7FC20B10079314619F0F8FDF4
:10366C008BE7F06A24F0FBFF304622F0B0FF84E7D2
:10367C00284618F00BFD00283FF47FAF6988454BB6
:10368C00064602203AE06E461221304624F0F6FE41
:10369C002846314615F02AFC69883D4B04203246F9
:1036AC005AE06E461821304624F0E8FE2846314692
:1036BC0023F05CFC6988354B1020324620F0C8FCA6
:1036CC00039818B124F0CBFF002003900598C8B9DB
:1036DC0053E7284621F067FA00283FF44EAF69887B
:1036EC00294B0646202009E0284621F05CFA0028E8
:1036FC003FF443AF6988234B06464020324620F006
:10370C00A7FC304624F0ABFF37E7A8696988184B53
:10371C0024F096FD4FF480001EE0A8696988174BD1
:10372C0024F08EFD4FF4804016E0A8696988144B94
:10373C0024F086FD4FF400500EE0A86969880E4B0A
:10374C0024F07EFD4FF4004006E0A8696988094B1F
:10375C0024F076FD4FF4801020F07AFC0DE700BFCA
:10376C00ED4C002054280020B95E02009857002030
:10377C00574D02002D4D0200814D0200034D0200F9
:10378C00D94C020097CF01003DCF010065690100C3
:10379C00AD360100F9C3010059C401004DF601001A
:1037AC007FB50138072800F20F810C46DFE800F0E6
:1037BC000428465E7A8C9AB3D148007801380128E7
:1037CC0000F20281002C00F044810020032100242F
:1037DC001EF084FAC54DC64E0420042132222870F6
:1037EC00307824F0AAFE0820002108F053F8307835
:1037FC006C704FF4805104B0BDE870401AF0E8B919
:10380C000020002524F0F8F9BA48012101700420A9
:10381C008DF80D0024B1B448C586062022F0CAFCF0
:10382C00B248042132220570B148007824F085FE9C
:10383C00AD4890F8371001F0FE01C3E0B0480078B5
:10384C000138012800F2C080A948042132220078F6
:10385C0024F073FE002C00F01681A34CA348012128
:10386C000170E069E8B31EF0F3FEFAE701208DF871
:10387C000D0054B19C480021A04A80F836109E4897
:10388C0024F07AFB062022F095FC98480021322285
:10389C000170974824F0C9FD934890F8371001F057
:1038AC00FD018FE002208DF80D008F48002C54D0C4
:1038BC000021924A80F836108F4824F05DFB0020DE
:1038CC0003211EF00BFA4BE0874C03208DF80D0002
:1038DC0094F8360008B90120A0712078002800F077
:1038EC0086807FBD0025002C8DF80D5045D008201A
:1038FC00002107F0CFFF042022F05CFC10F01AFB33
:10390C007A480D21C8220570774880F8361078481F
:10391C0024F08BFD48E00520002C8DF80D0049D0DB
:10392C0072480022C178C270017042F20800002176
:10393C0007F0B0FF6C490D2091F837300A7981F807
:10394C00360003F0DF03002A81F8373008BF04206B
:10395C0022F030FC1CF06EF836E0082180F83610AE
:10396C006248002132220170614824F05EFD5E48FD
:10397C0090F8371001F0FB0124E05B4C94F83A000E
:10398C0078B194F83700002140F0200084F837001B
:10399C0005208DF80D00082007F07CFF0A2022F08E
:1039AC0009FC022084F836004F4890F8371001F0DB
:1039BC00EF0107E04C48022180F8361090F83710E0
:1039CC0041F0200180F837104748016A00293FF484
:1039DC0088AF90F83600002203238DF80C00444881
:1039EC00007803A900910A211DF02FFC7FBD2069EE
:1039FC0024F0FAF800287FF474AF3D4D4FF4804169
:103A0C0028781DF0C9FD00287FF46BAF002604F167
:103A1C001000C4E9056622F027F828784FF480419D
:103A2C001AF0D6F8A079012806D194F836000B28A4
:103A3C0004BF002084F836002C48A67101780629B2
:103A4C0046D10021322201702878042124F075FD22
:103A5C0043E0254C0720264D4FF4805184F8360066
:103A6C0001208DF80D0028781AF0B2F800200026FD
:103A7C0021F08EFB2878022141F2883284F83760DD
:103A8C0024F05BFDA0E7184C022000218DF80B10F0
:103A9C0084F836001548017094F837000DF10B01CD
:103AAC0000F0FD0084F8370001208DF80D00522045
:103ABC001CF066FC23F0B2FD20F0C8FC002022F0C4
:103ACC0079FBE06900283FF47FAF1EF0C1FDF8E7F9
:103ADC00C178062904BF0021C17094F8370000F0AA
:103AEC00F70084F837006FE7A42300202868002033
:103AFC00B3680020A9290020985700207C290020B9
:103B0C00B92900209EB0DFF8A4B20121CBF8040043
:103B1C0024F05EFBA64EA7494FF0000A4FF47A72D0
:103B2C000023CDE900AA06F13008404619F0D2FE78
:103B3C00306104AC204624F05BFC06F11405002136
:103B4C0022468DF810A0284623F068F8B56024F0C2
:103B5C002DFB06F10C04294622461FF019F90DF134
:103B6C002009074630701221484624F087FC924801
:103B7C005946CBF81000082001F8080F384614F00D
:103B8C0085FA0BF1180108201CF04CF923F0E6FD26
:103B9C008A488B4A017808201EF036FF8949082094
:103BAC001AF08CFA4FF4006087490F900D900120A9
:103BBC008DF846008DF840008DF838008348CDF81C
:103BCC004210CDF8470030780DA924F0E8FB0DAF7A
:103BDC004421384624F052FC40F201103946ADF82D
:103BEC007200307824F09AFB40F2024059460422CD
:103BFC00CDF8220008208DF820007548CDF826005D
:103C0C0009F10A0023F048FF3078494624F0B3FB51
:103C1C0070487149734B2A460078013801289CBFC3
:103C2C000A20708003916D49307802916C490191A2
:103C3C00B11C0091214607F08BFF6B4C0DF1340B3E
:103C4C002060584624F02EF8002059460BF050FA0C
:103C5C0020686649331D00220CF06EFB1AF004FA42
:103C6C0030788DF81CA007A924F09EFB0BF10609F7
:103C7C0028464FF0FF310DF0E9F80028F8D03078E5
:103C8C0018F0ECFD002800F0808004460078A0F1CC
:103C9C00C501062918D8DFE801F0041F237171272C
:103CAC002E002079E71C05280AD138780D2807D07A
:103CBC0030694FF47A7124F0D8FB404624F0F1FCC3
:103CCC00384607F0C1FB59E0922818D0942855D1FA
:103CDC00E01C11F0EDFD51E0E01C17F035FC4DE05F
:103CEC00201D1DF083FF49E0307859468DF834A033
:103CFC0024F019FB42E0307824F01AFB3EE0D4F8B3
:103D0C001200A17BCDF8360020798DF84310218A62
:103D1C00ADF84410411E8DF84200022903D303284C
:103D2C0005D00F2808D1E088ADF83A0004E0A11DB9
:103D3C004846082223F0B0FED4F81600CDF8460011
:103D4C00E07E8DF84A00A08BADF84B00A07E8DF87C
:103D5C004D00206A149094F824008DF85400E08CE7
:103D6C00ADF8600094F828008DF86200608DADF815
:103D7C005800E06A1790584601F0DEFE204611F01C
:103D8C0037FE10B9204622F022FC16F05FFD307B86
:103D9C00800707D53078594624F0E8FAF06820F00F
:103DAC000200F0601AF060F962E700BF58240020AE
:103DBC00C81D00207D770200CC26002023AC020019
:103DCC008C970200294E0200FFFF01040301000141
:103DDC0003000A00B929002013E20100FD5C020077
:103DEC0086A20200A86800204C6800205FA8020090
:103DFC002DE9F04F85B0DFF8AC8298F8000001286F
:103E0C0022D1DFF8A4B2D8F810609BF82070DBF850
:103E1C001C501B2F21D1A54824F086FBB0B1A4481F
:103E2C0024F082FBA0B1A34824F07EFB90B1A24801
:103E3C0024F07AFB80B1A148052121F0B7FE0028BF
:103E4C0040F01B811B2708E0012522E1FA2704E042
:103E5C00FB2702E0FC2700E0FD2706EB460005EB04
:103E6C008009A7F14100C0B24E461A2838BF20374E
:103E7C0016F8140F3446032814F801AF1ED002288C
:103E8C0040F0AC808E4D24F0FEF923F01DFB4FF07A
:103E9C00FF3001903078022840F0A080207820B3C9
:103EAC00F8B21B2837D00D2848D1D9F8183000208B
:103EBC002070CBB302A901AAFF2034E0804D24F07E
:103ECC00E2F923F001FB3078032840F0848020785D
:103EDC0090B1FDB21B2D05D0FD2D51D0FC2D55D030
:103EEC007F2D5BD10020207075E0F8B20D2875D1C4
:103EFC000120FE27207021E0F8B20D286BD10120A3
:103F0C002070D9F818000368002B5CD0C08802A977
:103F1C000022984757E0D9F81830002020701BB1C8
:103F2C0002A901AAF920984700208BF80000002074
:103F3C000AF00AF82078002800F09F80D9F8183091
:103F4C001BB102A9F8B201AA9847012009F0FCFFA5
:103F5C00BDF806004FF6FF7290420DD0BDF804106C
:103F6C00914209D0ABF804000120ABF802108BF899
:103F7C0000001DF0E5F980E000208BF800007CE0EB
:103F8C0023F062FD013991FBF2F304E023F05CFDB8
:103F9C000131B1FBF2F303FB12110180D9F81800C7
:103FAC0003684BB16FF00C01C08851FA87F1B1FA7C
:103FBC0081F14A0902A99847B5F10D0018BF0120FB
:103FCC000D2D207007D009F110000168049821F024
:103FDC00BBF901204FE02078824515D16FF0FB0032
:103FEC00F9B250FA87F002281AD30D2923D01B29D5
:103FFC000AD07F2941D1DBF81C00C16869B1D8F81F
:10400C001400CBF81C1033E0BAF1000F01D020786B
:10401C0080B3DBF81800CBF81C00007A013827E0DD
:10402C00DBF81C00007A012827D0FD2916D0FC29CA
:10403C0020D1012114E0D8F81000DBF81C1000EBA3
:10404C00400201EB82010A7D012A26D092B98969CE
:10405C00CBF81C100021C8E904100BE04FF0FF3125
:10406C00D8F8102001441144B1FBF0F202FB1010FF
:10407C00C8F81000002009F067FF0025D8F80800E8
:10408C00052200234BF8205F59468BF8045021F091
:10409C0085FE284605B0BDE8F08F89690029E9D076
:1040AC008847E7E790240020F41F0020CCAB0200E7
:1040BC00C0AB0200C8AB0200D0AB020070AB020078
:1040CC00484B00202DE9FE4F074608680024B0B18C
:1040DC00D7E9018A0E4623F001FF8146D8F8E800A3
:1040EC00082888BF0124B068204202D170682042A1
:1040FC0008D003203074484624F0EFF90024204601
:10410C00BDE8FE8FD8F8C01069B198F8F8100029F6
:10411C00EFD006213174D8F8C410C8F8C4604E61D1
:10412C0098F8FC100DE000210522C8E93066C8E9BA
:10413C003411C8E9361198F8FC10002908BF012287
:10414C00327400220129726109D102204FF4E0215E
:10415C0088F8FC0098F8FB001FF0EAFB70688949AE
:10416C000138884205D804201FF0A2FC06201FF05D
:10417C009FFC02201FF09CFC98F8F80040B9DAF87C
:10418C003C003168814203D298F8FC0000286CD0C6
:10419C00D8E9361009B118B900E028B324F049F970
:1041AC00DAF80000416941F001014161484624F010
:1041BC0094F998F8F80008B10124A0E708F16C050F
:1041CC00D8F8EC10284624F08BF80028F4D0D8F856
:1041DC00C00003210174384612F0E4FC284600218B
:1041EC00002424F07DF88AE79AF8040024F01DFAE4
:1041FC00654CDAF810100222206991FAA1F1B1FA9B
:10420C0081F14368D8F8CC00406800689847206971
:10421C00DAF8141002224368D8F8CC0091FAA1F114
:10422C00B1FA81F14068006898479AF8040021F0CF
:10423C00B1FE9AF8040024F0FAF924F0FAF8002000
:10424C00C8F8E000D8F8C0000068B0F5806F01D95C
:10425C0024F0EFF898F8FE000028A1D1DAF800005D
:10426C00416841F0020141609AE798F8F90020B1E9
:10427C00D8F8EC0001307FF48BAF484624F02DF9D0
:10428C00B2683AB1D8F8E8000221092838BF0121F8
:10429C00009103E008F1F40200200090746834B13E
:1042AC00D8F8E8000227092838BF012702E008F1F6
:1042BC00F6040027DAF80000334D416841F00201A2
:1042CC004160D6F800B0D946BBF1000F40D0D8F809
:1042DC00E800019209284FF0010011D22A68B9F1C7
:1042EC00000F1FD0C0071DD02178DAF800009268AB
:1042FC00904700281EBF3C44A9F101090120EDE7BD
:10430C002A68B9F1000F16D0C00714D02188DAF84A
:10431C0000009268904700281EBF3C44A9F1010997
:10432C000120EDE7DAF80000D26802A99047DDE938
:10433C000120107007E0DAF80000D26802A990475B
:10434C00DDE9012010800098ABF1010B0244BBE7C2
:10435C00D8F8F000DAF80010CA680240102802D130
:10436C00002AF9D101E0002AF6D0706821F042FC55
:10437C00D8F8C0100020C8F8C400C8F8C0000874F1
:10438C001AE700BFFEFFFF0FC40100102DE9F04F2C
:10439C008BB00746807E21F06DFF90B1FE693078BE
:1043AC0078B18000013024F05CF940B1044623F070
:1043BC000BFC1BF063FB48B1204624F050F910268F
:1043CC0000E0022630460BB0BDE8F08F00204FF025
:1043DC0000094FF0000B05940697079000200490FD
:1043EC003078834580F0858006EB090AB046BD899C
:1043FC00BC7EBAF802602046294632461DF09EF972
:10440C00074620462946324608AB1CF05CFFFF2FBE
:10441C0018BF002812D18720079BDDE905274646E7
:10442C00D9B2013302EB8101079348709AF801006D
:10443C008870BAF80200A1F8030004E09AF80100B1
:10444C0030B1069F464609F10E090BF1010BC7E787
:10445C009AF804009DF82610884205D19DF8271083
:10446C00490703D48C20D7E78D20D5E7754BBAF8D4
:10447C0005204FF6FF74BAF8071046461B68A24297
:10448C0008BF00291DD0162417FB04331981DA80CC
:10449C0020F0E6FF48B36B490022086817FB0400C4
:1044AC00C0F80E200868DAF80B5017FB040000F176
:1044BC000E049AF8040022F0C1FE0246204629465A
:1044CC0011E01622002117FB0230C0F80E10D0F8B4
:1044DC000A10C0F806105B48006817FB02010422A2
:1044EC0001F10E00123123F0D7FA069F012004903F
:1044FC00A9E70498012840F08580514C514E1625AF
:10450C002078326800FB05F1562023F01FFE30B9ED
:10451C002078326800FB05F1562023F01DFE4A4836
:10452C008021007819F054FB484890F800904FEA2D
:10453C00890024F096F8002864D009EB8901444FD7
:10454C008046013000228900914205D0BB581432BC
:10455C0040F8013C0430F7E73C4890F800B0BBF160
:10456C00000F36D04FF0000A01200025E9B2594562
:10457C002FD200062AD0386958B1D0E900413961F0
:10458C0024F06DF8387B01383873204624F067F836
:10459C00F1E7DFF8B8C09CF800000138C1B28CF824
:1045AC000000890051FA80F107EB810257F82110C5
:1045BC005368D2E90346C7E900131189C7E90346DA
:1045CC00C2F810A082F80CA0398100E0002001355F
:1045DC00CCE705F0A5FF0024A1450FD008EB840023
:1045EC00418840781EF08EFDFF2805D018F8241065
:1045FC0000EB800007F820100134EDE7404624F072
:10460C002EF8069F059C07982070000604BF012019
:10461C00208000260123B97ABA89B87ECDE900330F
:10462C002346CDE9021607F10E0112F029FF2046B0
:10463C0024F015F821F05EFE1DF0D2FFC2E600BF9B
:10464C00B56800202C680020B3680020B7680020F3
:10465C005059002092B0DFF87C92D9F8000010B1CC
:10466C00002180F8451048301FF0EAFB23F036FC9F
:10467C008046072010F032F816F0B2FB10B19648C5
:10468C0023F09AFD18F068FE01AD284623F06CFA71
:10469C000427002029468DF8047023F06DFA8F4C06
:1046AC00206022F0C1FE0AAD284623F02DF900202F
:1046BC0029468DF8287023F02FF9894E306022F0AE
:1046CC00BDFE06AD284623F02FF9002029468DF8B3
:1046DC00187023F031F93168824D286019B982487D
:1046EC0023F06AFD286810B9804823F065FD206826
:1046FC0010B97F4823F060FD1CF04AFBD9F800008C
:10470C004FF0FF3738B1CDE9107710A9082222F00D
:10471C007FF801281BD1CDE91077082023F0A1FFE9
:10472C00002846D005460024052C04D823F0C9FDEA
:10473C0028530234F8E74FF6300029460822E88067
:10474C006C4823F0A9F9284623F089FF09E0D9F831
:10475C000010CDE910770029DFD06648082223F03D
:10476C009BF910AA0120082123F0F0FC092800D0A5
:10477C00D8B920F068FB800712D4CDE91077CDE9C9
:10478C000E770EAB01200021082222F0B5FF60B994
:10479C000EA810A9082222F03BF8002800F0948003
:1047AC00544A0120082123F0D7FC5249E2201BF087
:1047BC00E7FD15F0E7FB1C2023F053FF4E4E306055
:1047CC00E8B34E4F4E4C07F10C0523F02AFE4D4931
:1047DC008968D1F84C1388473068056007F11005DB
:1047EC0023F01FFE1EF084F83068456007F11405B5
:1047FC0023F017FE1AF0EAF83068856007F1180507
:10480C0023F00FFE1EF0DAF93068C56007F11C05C5
:10481C0023F007FE1DF094FD3068056107F12005BB
:10482C0023F0FFFD1EF054FC3068456107F12405B0
:10483C0023F0F7FD387012F00BFD3068856118F02D
:10484C009BFF23F098FA404623F047FE15F006FE36
:10485C0023F055FD01201CF0BBFA18F013F9274D7D
:10486C004FF48041287823F09FFBDFF89C904FF0A9
:10487C00000868684FF0FF310CF0E8FA3068002748
:10488C0050F82710096821B9791C062F0F46F7D369
:10489C00EFE723F011FD316851F827100C68C1F8CF
:1048AC00008023F053FE59F8272000202146904722
:1048BC00044623F001FD316851F827100A682243A1
:1048CC000A6023F043FED4E70A480EA9082223F01D
:1048DC00E3F86AE7382900202EA2020014680020B1
:1048EC00186800201C6800206EA60200D6A50200E5
:1048FC0082A70200CC670020886800205823002083
:10490C009D2D02000C010020DCA202002DE9F04FCD
:10491C008FB00C46080413D4A0042BD4E00735D177
:10492C00A00642D4A00700F1FD80A00500F115817E
:10493C00200700F12681600500F1268100201DE191
:10494C009648007817F08AFF88B10178944A05469A
:10495C000020302808D0135C08308B42F9D1104469
:10496C0050F8041C28468847284621F030FE84F471
:10497C00004003E11BF07EF928B10546FEF7A8F9CB
:10498C00284621F024FE84F40050F7E0854890F886
:10499C002C100F2906D190F82600022802D30020F3
:1049AC001FF056F884F00100E8E07C4F20213878A5
:1049BC001CF0F2FDDFF8F0814FF00109D8F800107F
:1049CC00084317D023F025FE054623F020FE68434C
:1049DC004FF47A71B0FBF1F0D8F80010401A4FEA9E
:1049EC00500938BF6FF000490025002964D0B9F197
:1049FC00000F61D000200421002220F055FC064657
:104A0C004FF0060A4FF0FF0B4FF6FF7802AD002E69
:104A1C004ED0304604210022374620F045FC064695
:104A2C003889B0EB090038BF002038810004EED182
:104A3C00B87BD0B301280AD17889400707D43868ED
:104A4C0087F80DA0B721407B1BF0F0F8DFE7396841
:104A5C002A468DF806B0ADF80480086AC97F0BF0C1
:104A6C0073FB01281BD1B87BB97A8DF83800090784
:104A7C00788A40F08002ADF8362006D540F4C0703C
:104A8C00ADF83600387B8DF83A00786910B1007BB0
:104A9C00ADF81800284601A9002201F003FD387B6F
:104AAC0087F80DA013F036FEB1E701207873AEE75E
:104ABC00DFF8F480394F4D4620F06DFD00200121C8
:104ACC00002220F0F1FB18B13878202117F07EFA83
:104ADC00002004210022002620F0E6FBC0B306894A
:104AEC000421002220F0E0FB28B1B1B20689B142CA
:104AFC0038BF0E46F4E7A8B2B1B2814223D9D6FA38
:104B0C0055F0202180B24200387823F016FD23F0B6
:104B1C0080FD054623F07BFD68434FF47A71B0FBB2
:104B2C00F1F615E021480078E0B102AD284623F0FB
:104B3C0064FC23F0E5F91E490B781E490A782946D6
:104B4C0018F05AFB18E03878202117F03FFA0026AD
:104B5C00C8F8006084F0200010E013F0D1F984F460
:104B6C0000700BE00F48418B012023F070FD0B48C7
:104B7C000121007819F02CF884F002000FB0BDE888
:104B8C00F08F84F00800F9E714F0F2FF05480121DA
:104B9C00808C23F052FD84F48060EFE7AF68002036
:104BAC001CA00200985700202029002090290020EA
:104BBC00BA290020BC2900202DE9F04F89B0A04E65
:104BCC000546A04F30780328387040F0AC800020A8
:104BDC003070387002AC204623F0FDFC20460021DA
:104BEC0021F0D6FF984CB8602E21204623F046FCCD
:104BFC004FF0FF30A0822061E0601FF053FC0020DA
:104C0C0029461AF0D3FD07F11001F86023F077FC68
:104C1C00D7E905128D4DB1FBF2F0C0B2022828BFC6
:104C2C000220B2F5005F207028707AD1B1EB403FC2
:104C3C0077D3F968002974D04FF6FF7100274FF035
:104C4C0088586FF0030B61808149616087426DD297
:104C5C00FEB2002108AA0423304622F0E5FE07EB41
:104C6C00470004EB800A0898D14600F47C0129F82F
:104C7C00160FB1F5402F04D000F07F41B1F1164F63
:104C8C003ED1C0F301418AF819106FF0FD0151FAC1
:104C9C0080F21021022A31D3C2B27E2A2ED003A870
:104CAC001DF036FA304600214FF088524FF4005375
:104CBC004FF4005522F0B8FE1BFA85F5A8B250F857
:104CCC0008104A1C01D10328F6D801220126D3B2C0
:104CDC00042B06D8CBB2FF2B18BF16460132090A9B
:104CEC00F5E740F808105C480399006842685B4897
:104CFC00904755FA86F199F80000544DAAF81C100B
:104D0C00C0B2702807D0782803D0FE2805D07C28A4
:104D1C0004D1E77002E0277100E0A7702878013712
:104D2C0094E70120307009B0BDE8F08FE178FF29DD
:104D3C0003D0DFF81081012529E02179FF2904D067
:104D4C00DFF80081E170022521E0A178DFF8F48022
:104D5C00FF290ED00131B1FBF0F202FB101000EB79
:104D6C00400104EB8101898B09B1E070EBE7FF2076
:104D7C00A07000250020E57011F042F998F80010A1
:104D8C0008437E2188F8000000201DF0CDFFA0789C
:104D9C00FF2813D12D48E17800780131B1FBF0F2F6
:104DAC0002FB1010A07011F02BF998F800100843BA
:104DBC00FE2188F80000A0781DF0B6FF2548E278A7
:104DCC00022D057002EB4200627004EB8000818BB7
:104DDC00E18028D0012D2BD103AD002788B21828F3
:104DEC0026D30739D0B22A4689B213F0D3FD9DF8E9
:104DFC001700400717D5E088BDF81A10E6782A4648
:104E0C0003230097401A073881B2304607F016FF8B
:104E1C00E27820B9BDF8181009B196420BD0964231
:104E2C0006D0E188DAE701206071002000F006FC72
:104E3C0098F8000077E79DF81C0019F0F7FEF7E7EB
:104E4C0085290020602500207C620020AE680020AF
:104E5C00FF000020BA680020D80100100040034079
:104E6C002DE9F04F8DB0044600209A4616460F46A9
:104E7C00CDE90B00CDE909008A488568804614F01D
:104E8C0063F91C2803D014F05FF91B281BD1308860
:104E9C0040F60201884218BFB0F5C15F03D1F07B28
:104EAC00022810D93EE043F6070188420BD196F850
:104EBC002400032807D330697B4940F0806020F040
:104ECC00604088422ED100206FB366B3387825FA43
:104EDC0000F0C00726D03046002123F0BCFB7348FD
:104EEC00C4E90176006880B109A800900CA90BAA4E
:104EFC000AAB304609F0A6FC0B980B214FF6FF725B
:104F0C00502321F087F8FF280CD022F0E7FF684FE0
:104F1C0006467878012802D840B1012070E030466E
:104F2C0023F0DBFA00200DB0BDE8F08F09F0FEFB9A
:104F3C0060480DF10409016841F0020101605E480E
:104F4C00C8F80000484622F007FEDFF870B15D4952
:104F5C004A469BF801009BF80050039058482830B3
:104F6C001DF0C1FD584859494A461DF0BCFD484644
:104F7C0022F022FDDFF85881564A19214B46029542
:104F8C0040461CF037FA544A08F11C001A214B46D3
:104F9C001CF030FA5148524923F05BFA51485249FF
:104FAC0023F057FA5148006810F4402F06D0504AAD
:104FBC0007F128000421002320F06CFC9BF8020070
:104FCC0010B10D200FF08AFB08F1400022F070F9AF
:104FDC0008F1380022F06CF9464900200722387697
:104FEC00B8843862386181F860200521C7E9021065
:104FFC004149F96138700420002121F08BF8787850
:10500C002F4941F8204001307870304623F065FA82
:10501C00BAF1000F02D0DAF8000008E00DF1040A32
:10502C0036492022504623F043FB4FF0FF30DAF88C
:10503C000420BAF81010DAE90635002AB2FA82F622
:10504C0008BF40F6C41220600120760961832563F5
:10505C0060762B4826764FF4FA766261C4E90362D7
:10506C00C4E90700C4E90903DAF80C0000B12062B6
:10507C00DAF8140000B16062DAF8080000B1E061FF
:10508C0004F13800C82123F0F9F904F15000002193
:10509C0021F080F81B4904F1B80023F0DAF920461E
:1050AC0041E700BFCC2108400F0000053C28002040
:1050BC008C1F002000200940110000E0F0A9020024
:1050CC0030210020A968020038600020BD330100A7
:1050DC005422002045B90100AD990100305F002039
:1050EC00C5580200EC5E002055680200B44F005019
:1050FC00A5E30100E858002041F70000F0A10200F0
:10510C0027440100778502002DE9F04F85B08846D1
:10511C0008040FD45FEA88704BD4A14800780128AA
:10512C0003D15FEA487000F180805FEA087053D4C5
:10513C00002026E1DFF850A29AF8000017F08EFB51
:10514C00002800F01C810546807FD0B9688C13289C
:10515C0017D1DFF838926E880021D9F818000F1D8E
:10516C00002908BF09F1180758B101884468B142F9
:10517C0004D13C6023F073FA2046F5E70146204643
:10518C00EDE7A87A05F1020B022840F0DE80DFF88B
:10519C00FC9195F83170BBF8006009F118000068BB
:1051AC0068B10188B14202D18178B94261D0043032
:1051BC00F5E776480121017088F00200E1E0D9F8AA
:1051CC001800002800F08780012204464068114630
:1051DC0001320028F9D180E06F48DFF8B091807B74
:1051EC00D9F81860000748D423F013FA044623F0CA
:1051FC000EFA6A4A60434FF47A71B0FBF1F0D9F8B9
:10520C0014101288411A914262D3B1FBF2FB0BFBD2
:10521C0002F2511A08445E49C9F814001FFA8BF0C7
:10522C000978884288BF8B4629E05F495D48002297
:10523C004FF6FE7300240978023079B130F8025C25
:10524C009D4208D04588013D45802D0406BF027063
:10525C0020F8023C012401390630EEE734B14A480B
:10526C0004214FF4FA72007823F067F988F00400F7
:10527C0087E047490978C1707EE04FF0010B0020B0
:10528C005FFA8BF44FF0000A071D002808BF09F1E4
:10529C00180796B1F078C0FA5BF1A042F17006D80D
:1052AC00756830463D6023F0DAF92E46F1E77168F7
:1052BC0030460AF1010A0E46E6E75FEA0A4007D1DA
:1052CC0000200821C9F814002F48007818F080FC41
:1052DC0088F0080055E0002400212E4889B200888F
:1052EC00814232D2082023F0BCF970B30021068031
:1052FC008770416026490978C170D9F8181009B136
:10530C00606011E0C9F818002348807B00070BD4BB
:10531C0023F07FF9044623F07AF960434FF47A7155
:10532C00B0FBF1F0C9F814001B48807B00070CD5CA
:10533C009AF8000008211CF02FF930B91748082101
:10534C0002889AF8000023F0F5F82878022810D08B
:10535C00012811D1297EAA89EB7C05F11C006C690E
:10536C006E7E8DE85A0005F11003594605F034FEA7
:10537C0002E0284613F0F8FD284621F028F988F4BD
:10538C00004005B0BDE8F08FAD68002088260020F5
:10539C00AF29002076290020985700207A29002078
:1053AC00CD2900207C5800208C2900202DE9F04FBD
:1053BC0087B000240293002A00F03A81074603A824
:1053CC0092460E464FF0200B10300190504610F8CC
:1053DC00011B25290CD0002900F02781022EC0F0DA
:1053EC00D680013E002F00F0D18007F8011BCEE0E3
:1053FC009AF801002D2806D19AF802000AF103034D
:10540C004FF0010C03E00AF102034FF0000C3028BE
:10541C000CBF13F8011B01462A2920D1029D2A68D2
:10542C00111D2960D2F8009013F8011BB9F1FF3F50
:10543C00DCBFC9F100094FF0010C2E291ED11A4610
:10544C0012F8011B2A291CD1029D2A68111D296002
:10545C009D1C126859782B4622EAE27821E04FF025
:10546C000009A1F13002092AE7D809EB890201EB06
:10547C004201A1F1300913F8011BF2E74FF0FF389C
:10548C000FE04FF00008A1F13003092B08D808EB0E
:10549C00880301EB4301A1F1300812F8011BF2E77C
:1054AC00134630284FF0000241F0200008BF4A4656
:1054BC006C2808BF13F8011B9A46692901D064298E
:1054CC0009D1029B1868011D196090456FF0090302
:1054DC00C8BF42461BE075290AD0A1F16F0009280C
:1054EC0058D8DFE800F005695F5F835F5F5F5F0599
:1054FC00029D2868031D2B6090454FF00803C8BF20
:10550C004246782908BF1023752908BF0A23DDF805
:10551C00048001684046654615F060F9AC460546C6
:10552C00A8EB0001A9EB0100BCF1000F0DD109E0C3
:10553C00022E05D3013E17B107F801BB00E000278E
:10554C00013801340128F3DA01380A465AB1022E27
:10555C0006D3013E1FB12B7807F8013B00E0002772
:10556C00013A0135F2E70C44BCF1000F3FF42EAFC9
:10557C000128FFF62BAF022E05D3013E17B107F819
:10558C0001BB00E0002701380134F1E700270134AA
:10559C0082461BE7632905D1029A1068011D116030
:1055AC00006804E0AAF10100022E3AD300788DF8CD
:1055BC000C00012103ADB5E7029ADDF8048010233D
:1055CC00CDF800C01068011D116010990822002947
:1055DC000168404615F002F905464FF04000DDF831
:1055EC0000C005F8010DA8EB05019BE7029ACDF868
:1055FC0000C01068011D1160109905680E48002943
:10560C00002D08BF0546284622F002FC80450146C5
:10561C0038BF414618F1010208BF0146DDF800C051
:10562C0080E7002103AD82467CE70FB10020387083
:10563C00204607B0BDE8F08F62AB02002DE9F04FB9
:10564C0097B081469948406818B18047002800F00F
:10565C00CE80974F01200021042300247E78F8731C
:10566C00BD7808AA304622F0DFF9089800F44030E3
:10567C00B0F5403F03D17879002800F0B98030466E
:10568C000621F8224FF0F80821F0B4F806EB460496
:10569C0007EB840080F818809DF82000702803D058
:1056AC00304670211DF040FBCDF81090069608AAEC
:1056BC002846002104234FF0000822F0B5F99DF88C
:1056CC002000FE2803D02846FE211DF02DFB284685
:1056DC000621FE22FE2621F08DF807F1160097F820
:1056EC000190BA78059500EB8401C9880192798202
:1056FC006E4981F8008005EB4501039100EB8101B7
:10570C0001F8026F029109EB490100EB8101B1F83C
:10571C0006B002EB420100EB810030F8061F079146
:10572C0000900EA81CF0F4FC0FAD1FFA8BF7172F8E
:10573C0054D35E480078002853D1ABF10706484695
:10574C0009AAB1B213F026F9BDF8324004F11000E9
:10575C00B8420FD89DF82E0096280BD1A6EB040A60
:10576C009DF82D2021464B461FFA8AF8404616F02C
:10577C00FDFBF0B1ABF1010B5C46A0B216282DD9A4
:10578C003628A4F1160748462A4688BF2027E41B72
:10579C00BBB2A1B222F048F93804EED015FA87F06A
:1057AC0010F8010C962801D0013FF5E707EB040B2C
:1057BC00BBE79DF82F00C1070ED180070CD507342D
:1057CC00079E3E49A3B213FA86F00A1A4846414690
:1057DC0022F02AF926440796D346A6E733480078E8
:1057EC0050B134480E990068426833489047002401
:1057FC0020B217B0BDE8F08F079F019E1021C7F5AE
:10580C000052A7F1100083B2C1F2001230461CF016
:10581C009BFC264C217808430E9920702548006883
:10582C00426825489047224D00980123B5F9122073
:10583C00697B07803046A5F814B02F821EF01CFE41
:10584C00B5F91420A97B304602231EF015FE049AEC
:10585C00002A08BF1022288A7C21C0F500509042F3
:10586C00B8BF7821059F38461DF05EFA069E30467B
:10587C0010F0C6FB207038460621FC22FC2420F0D8
:10588C00B9FF0298FE21AE70EF706F700470039830
:10589C0005EB8000808BE88030461DF045FA002037
:1058AC006871E888C0F50054A2E700BF60250020AD
:1058BC007C620020D8010010004003400020001141
:1058CC002DE9F04F89B015460E4607461DF01AFC1F
:1058DC00FF2800F07180834600EB8001924810F89D
:1058EC002110C90700F01B810BEB8B0100EB810829
:1058FC004FF6FF71B8F80600884200F0108108F1ED
:10590C0010000468002C57D020680188A94201D0EF
:10591C00201DF6E700284FD007AB384631462A4603
:10592C0010F052F9012847D18048802100781BF0F3
:10593C0033FE05464FF0000978B17D484FF47A717B
:10594C0000884843401B28BF8146B9FBF1F000FB9F
:10595C001191002918BF01308146B8F8040030B10C
:10596C00B8F8081011FA89F1814240F2D8809DF8FC
:10597C001E6030461FF074FD002800F0BC802068CB
:10598C00A6F12003089F821C00F1060A00200B2BB5
:10599C0014D8DFE803F0556A0606C5C5C5C57D8475
:1059AC004B4B10683968421A38BF0A1ADAF80000F3
:1059BC00824280F0A080B2E00220B1E0392E00F0EB
:1059CC0084803A2E40F0AC8092ED000B51EC106BC1
:1059DC0097ED000B3046019154EC107B3A46234670
:1059EC00029403F041FACDE905102146019C38469A
:1059FC003246234603F038FA029BCDE903103046B9
:105A0C0021463A4616F00EFA00280398059908BF6D
:105A1C000146049A069808BF10469AED000B53EC09
:105A2C00102B16F0FFF9002865D178E01068396862
:105A3C00421AB8BF0A1ADAF8000082425BDA6EE04A
:105A4C00127839789AF8004000208B1AA3424FF054
:105A5C000003A8BF012322F0DAFBA8BF01248A426D
:105A6C0038BF1C46012C46D05AE012883988BAF847
:105A7C00004000208B1AA3424FF00003A8BF012363
:105A8C0022F0C5FBA8BF01248A4238BF1C461AE08D
:105A9C0092F9002097F900109AF9004005E0B2F94C
:105AAC000020B7F90010BAF900408B1A0020A3426D
:105ABC004FF00003A8BF012322F0A9FBA8BF0124CB
:105ACC008A42B8BF1C46B4B92AE092ED000A97EDA1
